:100000000C9462000C94C50A0C949E0A0C948A000D
:100010000C948A000C948A000C948A000C94EC0ACC
:100020000C948A000C948A000C948A000C948A0028
:100030000C948A000C948A000C948A000C948A0018
:100040000C94540A0C948A000C94220A0C94FC0917
:100050000C948A000C948A000C948A000C948A00F8
:100060000C948A000C948A000000000023002600F3
:10007000290000000000240027002A0000000000E2
:10008000250028002B0004040404040404040202D4
:100090000202020203030303030301020408102007
:1000A0004080010204081020010204081020000012
:1000B0000008000201000003040700000000000027
:1000C0000000D00E11241FBECFEFD8E0DEBFCDBFA1
:1000D00022E0A8E2B1E001C01D92AA3FB207E1F719
:1000E00011E0A0E0B1E0EAEBF3E202C005900D926E
:1000F000A832B107D9F710E0C2E6D0E004C02197DA
:10010000FE010E94D011C136D107C9F70E94830CAD
:100110000C94DB110C9400002F923F924F925F924F
:100120006F927F928F929F92AF92BF92CF92DF9207
:10013000EF92FF920F931F93CF93DF9300D000D0E5
:1001400000D0CDB7DEB78EE292E090933D01809370
:100150003C0180912B0290E090933F0180933E01FF
:100160008091F80290E0909341018093400180914A
:100170002702853009F06DC68091300290913102DE
:10018000885891098D35910588F480912B0284302F
:1001900041F480913202909133028097479708F49E
:1001A00083C080912B02843408F065C080912B02BB
:1001B0008A3108F4CCC080912E0290912F02843FA6
:1001C000914080F410923B0110923A018FEF9FEF23
:1001D000DC018093360190933701A0933801B093EE
:1001E000390146C0809130029091310285974B973A
:1001F00008F0ADC0E4E3F2E082E090E040E050E0DF
:10020000BA018C010F5F1F4F20912B0230E00217C3
:1002100013076CF49F0122503109D9012D913C91B3
:10022000275031092730310508F476C0C8010197FD
:100230009595879590933B0180933A010C972CF408
:1002400010923B0110923A0182C0409336015093C4
:100250003701609338017093390184E090E0EAC47B
:100260004093360150933701609338017093390100
:100270008BE090E0DFC4809132029091330282548F
:1002800091098E9708F092CF20E030E080E090E076
:10029000DC01F901EC5CFD4F40815181495051096D
:1002A0004930510588F082CF809134029091350217
:1002B0000997099708F075CF10923B0110923A0107
:1002C0008FEF9FEFDC01C8C5F901EA5CFD4F40816B
:1002D0005181475151094231510588F4880F991FC6
:1002E000AA1FBB1F81602C5F3F4F2038310589F664
:1002F00020E230E030933B0120933A01ADC54081CC
:100300005181465051094730510508F04FCF880FB1
:10031000991FAA1FBB1FE7CF2081318123513109CB
:100320002F30310540F4440F551F661F771F416081
:100330000296349666CF208131812A5031092930C6
:10034000310528F4440F551F661F771FF1CF8091A8
:100350002B028A3108F45EC080912E0290912F0208
:100360008032934008F42ECF809130029091310278
:10037000C697869708F04EC0809132029091330262
:10038000C697869708F046C0E6E3F2E083E090E087
:1003900040E050E0BA018C010F5F1F4F20912B020B
:1003A00030E00217130764F49F0122503109D9018C
:1003B0002D913C912C5031092B30310580F0C80132
:1003C00001979595879590933B0180933A010C97FF
:1003D0000CF046CF10923B0110923A011BC02081D5
:1003E0003181255231092B31310540F4440F551F1D
:1003F000661F771F416002963496CDCF20813181F0
:100400002C5031092A30310528F4440F551F661F3E
:10041000771FF1CF80912B02823208F457C0809170
:100420003002909131020697079708F04FC0E4E33D
:10043000F2E082E090E040E050E0BA018C010F5F12
:100440001F4F20912B0230E002171307C4F4DF0185
:1004500012972D913C9111972E5131092731310579
:1004600038F5440F551F661F771F41602081318189
:100470003496235031092530310530F1C8010197F8
:100480009595879590933B0180933A0140972CF482
:1004900010923B0110923A0119C0409336015093DB
:1004A000370160933801709339018CE090E0C2C34A
:1004B0002D913C912C5031092B30310538F4440FEB
:1004C000551F661F771FD2CF0296B8CF1C821B82A2
:1004D00081E090E09A83898380912B028D3078F4BB
:1004E0001C821B8281E090E09A83898380913E0187
:1004F00090913F01181619060CF46CC0C3C049E76F
:1005000053E0BE016D5F7F4FCE0101960E940B0C40
:10051000892B31F749E753E0BE016D5F7F4FCE0174
:1005200001960E940B0C0197D9F649E753E0BE01F2
:100530006D5F7F4FCE0101960E940B0C892B81F6D7
:10054000C12CD12C760100E010E080912B0290E0CC
:1005500029813A812817390774F549E753E0BE012C
:100560006D5F7F4FCE0101960E940B0C5C0149E745
:1005700053E0BE016D5F7F4FCE0101960E940B0CD0
:10058000B1E0AB16B10451F4892B09F0A9CFCC0C22
:10059000DD1CEE1CFF1C6894C0F80AC0AB2809F0F3
:1005A0009FCF019709F09CCFCC0CDD1CEE1CFF1CEB
:1005B0000F5F1F4FCACF10933B0100933A01C092C7
:1005C0003601D0923701E0923801F092390181E092
:1005D00090E030C3E0913C01F0913D0182E090E079
:1005E0009A8389838281938189974E9708F04AC0C4
:1005F00083E090E09A838983848195810B970A97A1
:1006000008F040C04CEB51E0BE016D5F7F4FCE0162
:1006100001960E940B0C892BA9F54CEB51E0BE0111
:100620006D5F7F4FCE0101960E940B0C019751F533
:10063000C12CD12C760100E010E020913E013091D8
:100640003F0189819A81821793070CF026C14CEBF8
:1006500051E0BE016D5F7F4FCE0101960E940B0CF1
:100660005C010330110509F0E2C04CEB51E0BE0122
:100670006D5F7F4FCE0101960E940B0CA816B90644
:1006800009F4D5C0E0913C01F0913D018281938154
:10069000C6978697E0F4848195814B974597B8F487
:1006A000DF0116967F0126ECE20EF11C20E030E01F
:1006B00040E050E060E070E080E090E00D911C913F
:1006C0001197095011090830110508F4F5C08091FF
:1006D0002B02893370F18281938189579109833587
:1006E000910508F425C125C0D90112966D917C9120
:1006F0001397665171096131710508F045C1D70141
:10070000C601880F991FAA1FBB1F6C017D01689449
:10071000C0F84E5F5F4F2C5F3F4F4B33510509F4DC
:1007200016C1D9016D917C916A50710969307105CA
:10073000D8F280912B02823231F4828193810A9720
:10074000099708F431C182819381895791098335D2
:100750009105D0F480912B028132B0F08481958193
:10076000CA97899788F49F012A5F3F4FC12CD12CEB
:10077000760143E050E0D9016D917C916A50710996
:100780006930710508F42FC1828193818C549109DD
:10079000C59778F480912B02843031F4848195815F
:1007A0008097479708F482C180912B02843408F027
:1007B00064C180912B02863460F1828193810C9711
:1007C0000B9708F4C1C125C0D90112966D917C9197
:1007D00013976E5171096731710508F0EDC1D701AA
:1007E000C601880F991FAA1FBB1F6C017D01689469
:1007F000C0F84E5F5F4F2C5F3F4F4534510509F401
:10080000BEC1D9016D917C916C5071096B3071053D
:10081000D8F280912B02883508F43DC28281938101
:10082000855891098B35910508F4D6C134C24CEB3B
:1008300051E0BE016D5F7F4FCE0101960E940B0C0F
:100840004C010330110569F44CEB51E0BE016D5FC2
:100850007F4FCE0101960E940B0C8816990609F075
:1008600011CFA114B10459F48A94892809F00ACF50
:10087000CC0CDD1CEE1CFF1C6894C0F80BC0AA94C5
:10088000AB2809F0FFCE892809F0FCCECC0CDD1C8A
:10089000EE1CFF1C0F5F1F4FD0CE10933B01009347
:1008A0003A01C0923601D0923701E0923801F092BD
:1008B000390182E090E0BEC112960D911C91139710
:1008C000015111090D30110528F501E00E9499111F
:1008D00021601496AE15BF0509F0F0CE20933601C5
:1008E00030933701409338015093390100E20E9460
:1008F000B411209334013093350185E090E090935A
:1009000033018093320180E390E090933B01809328
:100910003A0194C112960D911C911397045011093C
:100920000530110508F0D3CE01E00E949911D1CF16
:1009300084819581CA97899708F0FBCE9F012A5F31
:100940003F4FC12CD12C760143E050E0EACE9F010D
:100950002A583F4FD9012D913C912A503109293015
:10096000310508F0E6CE2CE130E030933B012093D6
:100970003A01C0923601D0923701E0923801F092EC
:1009800039018AE090E056C1D90112966D917C91AF
:100990001397665071096730710508F0CACECC0C08
:1009A000DD1CEE1CFF1CB5CE20912B02CF01820F67
:1009B000911D820F911DDC0112978D919C910A97D8
:1009C000099708F0C0CE10923B0110923A018FEFC8
:1009D0009FEFDC018093360190933701A09338019B
:1009E000B093390147C0D90112966D917C9113974C
:1009F000665171096131710568F5D701C601880F2B
:100A0000991FAA1FBB1F6C017D016894C0F84E5F3F
:100A10005F4F2C5F3F4F4332510509F0ACCE9F0131
:100A20002A5B3F4FD9012D913C912A503109293041
:100A3000310508F0A9CE20E130E030933B0120934E
:100A40003A01C0923601D0923701E0923801F0921B
:100A5000390110C0D90112966D917C91139766509F
:100A600071096730710508F08FCECC0CDD1CEE1CCF
:100A7000FF1CCDCF86E090E0DDC084819581895454
:100A80009109C39708F095CE9F012A5F3F4FBF01A0
:100A90006A577F4FC12CD12C7601D9014D915C91C1
:100AA0004950510949305105B8F083CE868197816C
:100AB0000997099708F078CE10923B0110923A01FD
:100AC0008FEF9FEFDC018093360190933701A09365
:100AD0003801B0933901CBC1D90112964D915C9187
:100AE00013974651510941315105F0F4D701C60120
:100AF000880F991FAA1FBB1F6C017D016894C0F865
:100B00002C5F3F4F2617370741F620E230E0309345
:100B10003B0120933A01C0923601D0923701E09216
:100B20003801F0923901A3C1D90112964D915C911F
:100B30001397465051094730510508F03ACECC0C76
:100B4000DD1CEE1CFF1CDCCF848195810997099781
:100B500008F05FCE868197818C974F9708F059CE29
:100B60008085918589974D9708F053CE9F01265F28
:100B70003F4FC12CD12C760145E050E042CE9F0181
:100B800026573F4FD9012D913C912C5031092B30E4
:100B9000310508F03ECE20E230E030933B01209357
:100BA0003A01C0923601D0923701E0923801F092BA
:100BB000390188E090E03EC0D90112966D917C9198
:100BC0001397695071096930710508F022CECC0C79
:100BD000DD1CEE1CFF1C0DCE848195818254910991
:100BE0008E9708F058C08F01045C1F4F8DE190E094
:100BF00040E050E020912B0230E024503109821770
:100C00009307FCF001979595879590933B0180930E
:100C10003A018A970CF43FC0052E000C660B770B47
:100C20004093360150933701609338017093390136
:100C300089E090E0909333018093320181E090E06D
:100C400019C1980122503109D9012D913C912950A7
:100C5000310928303105F8F4BC016F5F7F4FD801AE
:100C60002D913C91275031092730310538F4440F3C
:100C7000551F416002960C5F1F4FBCCFD8012D91CC
:100C80003C91285131092231310510F0CB01BACF06
:100C9000440F551FEFCF80912B028032E1F4828107
:100CA000938106970697B8F48481958109970997EF
:100CB00090F49F012A5F3F4FBF01625C7F4FC12CC0
:100CC000D12C7601D9014D915C91465051094630A5
:100CD000510508F47EC080913E0190913F019E83B2
:100CE0008D8306970CF4B0C08F010E5F1F4F75EC1B
:100CF000C72E7DE9D72E7CE1E72E71E8F72EE3E0E1
:100D00002E2E312CD80114966D917C911597AD90B3
:100D1000BC9080E090E00E94190F2B013C01B501CE
:100D200080E090E00E94190F4B015C012DEC3CEC3F
:100D30004CE45FE30E947A0F9B01AC01C301B20156
:100D40000E94140F87FD17C02DEC3CEC4CE45FE3D0
:100D5000C301B2010E947A0F9B01AC01C501B4012D
:100D60000E94140FE82F880FFF0BEE27FF0FEE1FD6
:100D7000FF27319602C0E0E0F0E0A701960163E9A9
:100D800071E080E091E00E9438106F01FF0FEE08E3
:100D9000FF08C626D726E826F926BFEF2B1A3B0AFE
:100DA0000E5F1F4FED81FE81E215F30509F0AACF1A
:100DB000C0923601D0923701E0923801F0923901A9
:100DC00080E290E090933B0180933A018FEF9FEF98
:100DD00031CFD90112964D915C9113974951510928
:100DE0004331510508F5D701C601880F991FAA1F85
:100DF000BB1F6C017D016894C0F82C5F3F4F261724
:100E0000370709F05FCF2EE030E030933B012093AD
:100E10003A01C0923601D0923701E0923801F09247
:100E200039018FE090E006CFD90112964D915C9187
:100E30001397495051094930510508F04CCFCC0C5B
:100E4000DD1CEE1CFF1CD9CF82E08093270210929C
:100E50002B0280E090E00EC0809336019093370122
:100E6000A0933801B093390183E090E0E3CE87E0AE
:100E700090E0E0CE26960FB6F894DEBF0FBECDBF51
:100E8000DF91CF911F910F91FF90EF90DF90CF9066
:100E9000BF90AF909F908F907F906F905F904F909A
:100EA0003F902F900895E2E4F1E0A089B18982E0BB
:100EB0008C93A485B5851C92A685B7858FEC8C9301
:100EC000108EA489B58986E08C93A289B3898C9110
:100ED00080618C93A289B3898C9188608C93A2895C
:100EE000B3898C9180688C930288F389E02D80818E
:100EF0008F7D80830895CF92DF92EF92FF920F93C0
:100F00001F932FB7F894C0902E01D0902F01E0903E
:100F10003001F09031012FBFDC01CB018C0D9D1D04
:100F2000AE1DBF1D4FB7F89400912E0110912F01F7
:100F300020913001309131014FBF0C151D052E0558
:100F40003F0528F080179107A207B30758F71F91B4
:100F50000F91FF90EF90DF90CF900895CF92DF92A6
:100F6000EF92FF920F931F93CF93DF936C017A015F
:100F70008B01C0E0D0E0CE15DF0581F0D8016D9186
:100F80008D01D601ED91FC910190F081E02DC6011B
:100F90000995892B11F02196EECF7E01C701DF91D3
:100FA000CF911F910F91FF90EF90DF90CF90089518
:100FB000089580E090E00895FC01538D448D252F25
:100FC00030E0842F90E0821B930B541710F0CF96E3
:100FD000089501970895FC01918D828D981761F015
:100FE000828DDF01A80FB11D5D968C91928D9F5F60
:100FF0009F73928F90E008958FEF9FEF0895FC010B
:10100000918D828D981731F0828DE80FF11D858DBD
:1010100090E008958FEF9FEF0895FC01918D228D50
:10102000892F90E0805C9F4F821B91098F739927D5
:10103000089582E491E00E940D0821E0892B09F4D3
:1010400020E0822F0895FC01848DDF01A80FB11DDF
:10105000A35ABF4F2C91848D90E001968F739927EE
:10106000848FA689B7892C93A089B1898C918370CC
:1010700080648C93938D848D981306C00288F389C5
:10108000E02D80818F7D80830895EF92FF920F93F2
:101090001F93CF93DF93EC0181E0888F9B8D8C8D24
:1010A000981305C0E889F989808185FD26C0F62E50
:1010B0000B8D10E00F5F1F4F0F731127E02E8C8DEB
:1010C000E8120CC00FB607FCFACFE889F9898081D5
:1010D00085FFF5CFCE010E942308F1CF8B8DFE0155
:1010E000E80FF11DE35AFF4FF0829FB7F8940B8F82
:1010F000EA89FB89808180620AC09FB7F894EE89F3
:10110000FF896083E889F9898081837080648083A6
:101110009FBF81E090E0DF91CF911F910F91FF90F1
:10112000EF900895CF93DF93EC01888D8823C9F069
:10113000EA89FB89808185FD05C0A889B9898C91E0
:1011400086FD0FC00FB607FCF5CF808185FFF2CF7B
:10115000A889B9898C9185FFEDCFCE010E94230823
:10116000E7CFDF91CF91089580E090E0892B29F0BF
:101170000E94190881110C9400000895833081F0B9
:1011800028F4813099F08230A1F008958730A9F0D9
:101190008830B9F08430D1F4809180008F7D03C015
:1011A000809180008F7780938000089584B58F7739
:1011B00002C084B58F7D84BD08958091B0008F7783
:1011C00003C08091B0008F7D8093B00008951F937D
:1011D000CF93DF93282F30E0F901E255FF4F849140
:1011E000F901E656FF4FD491F901EA57FF4FC49138
:1011F000CC23C1F0162F81110E94BE08EC2FF0E025
:10120000EE0FFF1FE458FF4FA591B4919FB7F894DC
:10121000111104C08C91D095D82302C0EC91DE2B23
:10122000DC939FBFDF91CF911F910895CF93DF9300
:1012300090E0FC01E656FF4F2491FC01EA57FF4F76
:101240008491882361F190E0880F991FFC01EE588A
:10125000FF4FC591D491FC01E458FF4FA591B49183
:10126000611109C09FB7F8948881209582238883F3
:10127000EC912E230BC0623061F49FB7F894888103
:10128000322F309583238883EC912E2B2C939FBF94
:1012900006C08FB7F894E8812E2B28838FBFDF918B
:1012A000CF9108953FB7F8948091290190912A0138
:1012B000A0912B01B0912C0126B5A89B05C02F3F12
:1012C00019F00196A11DB11D3FBFBA2FA92F982F6C
:1012D0008827820F911DA11DB11DBC01CD0142E0E7
:1012E000660F771F881F991F4A95D1F708958F922F
:1012F0009F92AF92BF92CF92DF92EF92FF920E94A5
:1013000052094B015C018CE2C82EDD24D394E12C00
:10131000F12C0E945209DC01CB0188199909AA0914
:10132000BB09883E9340A105B10598F321E0C21A9C
:10133000D108E108F10888EE880E83E0981EA11C10
:10134000B11CC114D104E104F10419F7FF90EF902E
:10135000DF90CF90BF90AF909F908F9008950895A9
:1013600061E084E00E94E70861E085E00E94E70810
:1013700061E086E00E94E70861E087E00E94E708FC
:1013800061E088E00E94E70861E089E00E94E708E8
:1013900061E08AE00E94E70861E08BE00C94E708D6
:1013A0000E94D6116115710579F0FB0101900020B2
:1013B000E9F73197AF01461B570BDC01ED91FC912A
:1013C0000280F381E02D099480E090E008950E946E
:1013D0008C00892B81F08091360190913701A0918A
:1013E0003801B0913901833E9E4BAE47B14E19F49E
:1013F00081E080932D0108951F920F920FB60F92F6
:1014000011242F933F934F935F936F937F938F9309
:101410009F93AF93BF93EF93FF9382E491E00E9479
:101420002308FF91EF91BF91AF919F918F917F9191
:101430006F915F914F913F912F910F900FBE0F9041
:101440001F9018951F920F920FB60F9211242F9391
:101450008F939F93EF93FF93E0915201F09153018B
:101460008081E0915801F091590182FD12C0908174
:1014700080915B018F5F8F7320915C01821751F027
:10148000E0915B01F0E0EE5BFE4F958F80935B0196
:1014900001C08081FF91EF919F918F912F910F90CB
:1014A0000FBE0F901F9018951F920F920FB60F92BC
:1014B00011242F933F938F939F93AF93BF9380916A
:1014C0002E0190912F01A0913001B0913101309106
:1014D000280123E0230F2D3720F40196A11DB11D13
:1014E00005C026E8230F0296A11DB11D20932801F7
:1014F00080932E0190932F01A0933001B09331017E
:101500008091290190912A01A0912B01B0912C0189
:101510000196A11DB11D8093290190932A01A093EA
:101520002B01B0932C01BF91AF919F918F913F916F
:101530002F910F900FBE0F901F9018951F920F9232
:101540000FB60F9211242F933F934F935F936F9396
:101550007F938F939F93AF93BF93EF93FF93E0910C
:101560000201F09103010995FF91EF91BF91AF91B5
:101570009F918F917F916F915F914F913F912F91AB
:101580000F900FBE0F901F9018951F920F920FB6DD
:101590000F9211242F933F934F935F936F937F93F9
:1015A0008F939F93AF93BF93EF93FF93E0910001CD
:1015B000F09101010995FF91EF91BF91AF919F913A
:1015C0008F917F916F915F914F913F912F910F90EC
:1015D0000FBE0F901F9018951F920F920FB60F928B
:1015E00011242F933F934F935F936F937F938F9328
:1015F0009F93AF93BF93CF93DF93EF93FF9320918C
:10160000280230E0F901E255FF4F8491F901E656D6
:10161000FF4FD491F901EA57FF4FC491CC2379F0E1
:1016200081110E94BE08EC2FF0E0EE0FFF1FE85979
:10163000FF4FA591B491EC91ED2381E009F480E096
:1016400020912C0230912D022F5F3F4F30932D02BD
:1016500020932C0290912B02953618F096E09093EF
:101660002702909127029430C9F128F4923069F052
:101670009330D1F05EC0953009F451C0963009F036
:1016800058C091E09093F80251C0811152C020914E
:101690002C0230912D022436310508F442C01092FC
:1016A000F80210922B021CC0813009F042C0E09178
:1016B0002B0291E09E0F90932B02F0E020912C02E0
:1016C00030912D02EE0FFF1FE95DFD4F308727831C
:1016D00010922D0210922C0294E029C0811117C0A3
:1016E000E0912B0291E09E0F90932B02F0E020916D
:1016F0002C0230912D02EE0FFF1FE95DFD4F308768
:10170000278310922D0210922C0293E010C020919A
:101710002C0230912D022536310558F007C0811179
:1017200008C010922D0210922C0203C095E09093F5
:10173000270290912A029923B9F081110AC0809161
:101740002902882321F08091290261E009C02D9AA5
:101750000BC080912902882331F08091290260E03A
:101760000E94E70801C02D98FF91EF91DF91CF9182
:10177000BF91AF919F918F917F916F915F914F91A9
:101780003F912F910F900FBE0F901F901895CF9201
:10179000DF92EF92FF92CF93DF93EC01072E000CC4
:1017A000880B990B0E941B0F6B017C0120E030E03D
:1017B00040E45FE30E947A0F20E030E048E452E426
:1017C0000E94F1100E946311C617D707D4F020E0E1
:1017D00030E040EA5FE3C701B6010E947A0F20E0E3
:1017E00030E048E452E40E94F11020E030E040E8AC
:1017F0005FE30E9485100E94631121E06C177D0752
:101800000CF420E0822F90E0DF91CF91FF90EF90D9
:10181000DF90CF9008958F929F92AF92BF92CF9218
:10182000DF92EF92FF920F931F93CF93DF93FC0110
:1018300020813181E0913E01F0913F012E173F0759
:101840000CF04FC0F901EE0FFF1FA0913C01B091C9
:101850003D01EA0FFB1FA080B18021703327690191
:10186000F1E0CF26232B19F42CE93FEF02C024E648
:1018700030E07A018B01EC014901840E951EB40120
:10188000C5010E94C70B892B99F48E0C9F1CB401D3
:10189000C5010E94C70B892B71F4B701680D791D32
:1018A000C5010E94C70B892BF9F023E030E005C089
:1018B00021E030E002C022E030E0F8018081918137
:1018C0000196821793071CF49183808308C0F80166
:1018D0001182108288819981019699838883C6013B
:1018E00005C081E090E002C08FEF9FEFDF91CF91C4
:1018F0001F910F91FF90EF90DF90CF90BF90AF902E
:101900009F908F900895CF93DF93CDB7DEB7A197C7
:101910000FB6F894DEBF0FBECDBF789484B5826059
:1019200084BD84B5816084BD85B5826085BD85B583
:10193000816085BD80916E00816080936E00109201
:10194000810080918100826080938100809181007C
:10195000816080938100809180008160809380000D
:101960008091B10084608093B1008091B00081606B
:101970008093B00080917A00846080937A00809197
:101980007A00826080937A0080917A0081608093EF
:101990007A0080917A00806880937A001092C1006A
:1019A0001092230210922402109225021092260215
:1019B0001092E1011092E2011092E3011092E40111
:1019C00068EB7BE080E090E00E947B0782E491E09E
:1019D00090932202809321020E9453072FB7F8941C
:1019E00080912E0190912F01A0913001B091310191
:1019F0002FBF8093E1019093E201A093E301B093A4
:101A0000E40166E171E080912102909122020E943E
:101A1000D2096AE070E080E090E00E947B0781E0FC
:101A20008093F50161E084E00E94160961E085E0A1
:101A30000E94160961E086E00E94160961E087E0D5
:101A40000E94160961E088E00E94160961E089E0C1
:101A50000E94160961E08AE00E94160961E08BE0AD
:101A60000E94160960E082E00E94160960E082E0B0
:101A70000E94E70887EE99E09093010180930001AE
:101A8000809169008C7F816080936900E89A0E9450
:101A9000B009F89482E08093B0008093B10094E69E
:101AA0009093B3001092B20080937000789480936A
:101AB000270210922B028091280260E00E941609F2
:101AC0000E9453078AE0C82ED12CE12CF12C92E021
:101AD000B92E0E948C00892B09F45FC12091360138
:101AE00030913701409138015091390119A28E018E
:101AF0000F5D1F4FCA01B901A70196010E9448104E
:101B0000605DF80162938F01211531054105510592
:101B100089F7BF0182E491E00E94D20965E271E099
:101B200082E491E00E94D209B092270210922B0227
:101B30008091360190913701A0913801B09139011F
:101B4000833EF1ED9F07F3E5AF07F2E9BF0709F424
:101B5000B7C0D8F48931EFEB9E07EBE9AE07EFE5AC
:101B6000BE0709F44CC08336F0E49F07F1E7AF07E6
:101B7000FFE8BF0709F464C0883C9B45AA41BD4308
:101B800009F00BC106E010E071C08834E7EB9E0756
:101B9000E5E1AE07EFEDBE0709F4BEC0A0F4883C56
:101BA0009C42A849B64C09F0F8C061E084E00E946C
:101BB000E70861E085E00E94E70861E086E00E94B6
:101BC000E70860E0D7C0833EEEEB9E07EEE7AE0786
:101BD000E1EEBE0791F188349D4DAC40BB4E09F05B
:101BE000DCC061E084E00E94E70861E085E00E94DB
:101BF000E70860E086E00E94E70861E0BBC060E0C3
:101C000084E00E94E70860E085E00E94E70860E069
:101C100086E00E94E70860E087E00E94E70860E055
:101C200088E00E94E70860E089E00E94E70860E041
:101C30008AE00E94E70860E0ADC00E94B009ADC034
:101C400061E084E00E94E70861E085E00E94E70827
:101C500061E086E00E94E70861E087E00E94E70813
:101C600060E088E00E94E70860E08CC060E084E00B
:101C70000E94E70861E085E00E94E70861E086E0F5
:101C80000E94E70861E087E00E94E70861E088E0E1
:101C90000E94E70861E089E00E94E70861E08AE0CD
:101CA0000E94E70861E08BE00E94E7080E94770944
:101CB0000E94B0090E94770901501109B9F66DC060
:101CC00006E010E061E084E00E94E70860E085E063
:101CD0000E94E70861E086E00E94E70861E087E093
:101CE0000E94E70861E088E00E94E70861E089E07F
:101CF0000E94E70861E08AE00E94E70861E08BE06B
:101D00000E94E7080E9477090E94B0090E947709A3
:101D100001501109B9F641C080912D01811127C0F0
:101D200060E084E00E94E70860E085E00E94E70848
:101D300061E086E00E94E70861E087E00E94E70832
:101D400061E088E00E94E70861E089E00E94E7081E
:101D500061E08AE00E94E70861E08BE00E94E7080A
:101D60000E9477090E94B0090E947709D5CF10928E
:101D70002D0113C087E00E94E70861E088E00E941F
:101D8000E70861E089E00E94E70861E08AE00E94DC
:101D9000E70861E08BE00E94E7080E94B40899CE52
:101DA000E2E4F1E01382128288EE93E0A0E0B0E07A
:101DB00084839583A683B78388E091E091838083B1
:101DC00085EC90E09587848784EC90E09787868700
:101DD00080EC90E0918B808B81EC90E0938B828BF8
:101DE00082EC90E0958B848B86EC90E0978B868BD1
:101DF000118E128E138E148EEFEDF1E01682178283
:101E00001086118612861386148615861686178606
:101E1000108A118A128A138A148A158AE7E2F2E07C
:101E200082E08183138208950E94560F08F481E0B6
:101E30000895E89409C097FB3EF4909580957095BD
:101E400061957F4F8F4F9F4F9923A9F0F92F96E906
:101E5000BB279395F695879577956795B795F1117B
:101E6000F8CFFAF4BB0F11F460FF1BC06F5F7F4F18
:101E70008F4F9F4F16C0882311F096E911C077232A
:101E800021F09EE8872F762F05C0662371F096E833
:101E9000862F70E060E02AF09A95660F771F881F02
:101EA000DAF7880F9695879597F90895990F0008A6
:101EB000550FAA0BE0E8FEEF16161706E807F9071C
:101EC000C0F012161306E407F50798F0621B730BB7
:101ED000840B950B39F40A2661F0232B242B252B38
:101EE00021F408950A2609F4A140A6958FEF811DDB
:101EF000811D08950E948D0F0C94FE0F0E94F00F1B
:101F000038F00E94F70F20F0952311F00C94E70FA2
:101F10000C94ED0F11240C9432100E940F1070F3EA
:101F2000959FC1F3950F50E0551F629FF001729F7E
:101F3000BB27F00DB11D639FAA27F00DB11DAA1F8D
:101F4000649F6627B00DA11D661F829F2227B00DDA
:101F5000A11D621F739FB00DA11D621F839FA00D65
:101F6000611D221F749F3327A00D611D231F849FB5
:101F7000600D211D822F762F6A2F11249F5750400C
:101F80009AF0F1F088234AF0EE0FFF1FBB1F661F87
:101F9000771F881F91505040A9F79E3F510580F050
:101FA0000C94E70F0C9432105F3FE4F3983ED4F3A7
:101FB000869577956795B795F795E7959F5FC1F7F4
:101FC000FE2B880F911D9695879597F9089597F99F
:101FD0009F6780E870E060E008959FEF80EC0895CF
:101FE00000240A94161617061806090608950024F8
:101FF0000A9412161306140605060895092E039472
:10200000000C11F4882352F0BB0F40F4BF2B11F4E5
:1020100060FF04C06F5F7F4F8F4F9F4F089557FD44
:102020009058440F551F59F05F3F71F04795880F46
:1020300097FB991F61F09F3F79F0879508951216DD
:1020400013061406551FF2CF4695F1DF08C0161689
:1020500017061806991FF1CF86957105610508943A
:102060000895E894BB2766277727CB0197F9089551
:10207000DB018F939F930E946A10BF91AF91A29F43
:10208000800D911DA39F900DB29F900D1124089576
:10209000A1E21A2EAA1BBB1BFD010DC0AA1FBB1F6C
:1020A000EE1FFF1FA217B307E407F50720F0A21BDE
:1020B000B30BE40BF50B661F771F881F991F1A944B
:1020C00069F760957095809590959B01AC01BD0175
:1020D000CF0108950E947510A59F900DB49F900D9B
:1020E000A49F800D911D11240895A29FB001B39F5C
:1020F000C001A39F700D811D1124911DB29F700D11
:10210000811D1124911D08955058BB27AA270E94B4
:102110009C100C94FE0F0E94F00F38F00E94F70FF5
:1021200020F039F49F3F19F426F40C94ED0F0EF4CF
:10213000E095E7FB0C94E70FE92F0E940F1058F38E
:10214000BA17620773078407950720F079F4A6F59C
:102150000C9431100EF4E0950B2EBA2FA02D0B012C
:10216000B90190010C01CA01A0011124FF27591BDC
:1021700099F0593F50F4503E68F11A16F040A22FE2
:10218000232F342F4427585FF3CF46953795279553
:10219000A795F0405395C9F77EF41F16BA0B620B52
:1021A000730B840BBAF09150A1F0FF0FBB1F661F99
:1021B000771F881FC2F70EC0BA0F621F731F841FDC
:1021C00048F4879577956795B795F7959E3F08F002
:1021D000B0CF9395880F08F09927EE0F97958795C4
:1021E00008950E9405110C94FE0F0E94F70F58F0FD
:1021F0000E94F00F40F029F45F3F29F00C94E70FA4
:1022000051110C9432100C94ED0F0E940F1068F3D2
:102210009923B1F3552391F3951B550BBB27AA279F
:1022200062177307840738F09F5F5F4F220F331FD9
:10223000441FAA1FA9F335D00E2E3AF0E0E832D0A1
:1022400091505040E695001CCAF72BD0FE2F29D0A4
:10225000660F771F881FBB1F261737074807AB0776
:10226000B0E809F0BB0B802DBF01FF2793585F4FEB
:102270003AF09E3F510578F00C94E70F0C94321021
:102280005F3FE4F3983ED4F3869577956795B795CD
:10229000F7959F5FC9F7880F911D9695879597F9D8
:1022A0000895E1E0660F771F881FBB1F6217730751
:1022B0008407BA0720F0621B730B840BBA0BEE1F66
:1022C00088F7E09508950E946A116894B1110C9402
:1022D000321008950E94171088F09F5798F0B92F78
:1022E0009927B751B0F0E1F0660F771F881F991F4B
:1022F0001AF0BA95C9F714C0B13091F00E943110AC
:10230000B1E008950C943110672F782F8827B85FBB
:1023100039F0B93FCCF3869577956795B395D9F7A2
:102320003EF490958095709561957F4F8F4F9F4FAC
:1023300008950F93083090F0982F872F762F652FF0
:10234000542F432F322F22270850F4CF220F331F50
:10235000441F551F661F771F881F991F0A95B2F7E4
:102360000F91089597FB10F8169400080F9308300A
:1023700098F00850232F342F452F562F672F782F92
:10238000892F902DF4CF059497958795779567952C
:1023900057954795379527950A95AAF70F91089570
:1023A000EE0FFF1F0590F491E02D099481E090E07D
:0A23B000F8940C94DB11F894FFCFB1
:1023BA00AF09AF09000000004508AE07DC07920824
:1023CA000D08EB07FF07564D4450565F317C315FCD
:0823DA00564D4450560D0A0057
:107800000C94343C0C94513C0C94513C0C94513CE1
:107810000C94513C0C94513C0C94513C0C94513CB4
:107820000C94513C0C94513C0C94513C0C94513CA4
:107830000C94513C0C94513C0C94513C0C94513C94
:107840000C94513C0C94513C0C94513C0C94513C84
:107850000C94513C0C94513C0C94513C0C94513C74
:107860000C94513C0C94513C11241FBECFEFD8E036
:10787000DEBFCDBF11E0A0E0B1E0ECE9FFE702C060
:1078800005900D92A230B107D9F712E0A2E0B1E065
:1078900001C01D92AD30B107E1F70E942D3D0C945F
:1078A000CC3F0C94003C982F959595959595959582
:1078B000905D8F708A307CF0282F295A8091C0000B
:1078C00085FFFCCF9093C6008091C00085FFFCCF60
:1078D0002093C6000895282F205DF0CF982F809127
:1078E000C00085FFFCCF9093C6000895EF92FF92F1
:1078F0000F931F93EE24FF2487018091C00087FD22
:1079000017C00894E11CF11C011D111D81E4E8164B
:1079100082E4F8068FE0080780E0180770F3E09132
:107920000401F091050109958091C00087FFE9CF1E
:107930008091C6001F910F91FF90EF9008950E94D3
:10794000763C982F8091C00085FFFCCF9093C600B5
:1079500091362CF490330CF09053892F089597555D
:10796000892F08951F930E949F3C182F0E949F3CCF
:107970001295107F810F1F9108951F93182F882350
:1079800021F00E94763C1150E1F71F9108951F935A
:10799000182F0E94763C803249F0809103018F5F5E
:1079A000809303018530C1F01F9108958091C0003C
:1079B00085FFFCCF84E18093C6008091C00085FFE5
:1079C000FCCF1093C6008091C00085FFFCCF80E102
:1079D0008093C6001F910895E0910401F091050184
:1079E00009951F9108950E94763C803241F0809164
:1079F00003018F5F80930301853081F008958091AA
:107A0000C00085FFFCCF84E18093C6008091C00058
:107A100085FFFCCF80E18093C6000895E0910401CA
:107A2000F09105010995089540E951E08823A1F0FE
:107A30002D9A28EE33E0FA013197F1F721503040CA
:107A4000D1F72D9828EE33E0FA013197F1F7215064
:107A50003040D1F7815061F708953F924F925F9285
:107A60006F927F928F929F92AF92BF92CF92DF924E
:107A7000EF92FF920F931F93CF93DF93000080E16B
:107A80008093C4001092C50088E18093C10086E015
:107A90008093C2005098589A259A81E00E94143D24
:107AA00024E1F22E9EE1E92E85E9D82E0FE0C02ECA
:107AB00010E1B12EAA24A394B1E49B2EA6E58A2E50
:107AC000F2E57F2EE0E26E2E79E4572E63E5462E36
:107AD00050E5352E0E94763C8033B1F18133B9F107
:107AE000803409F46FC0813409F476C0823409F41B
:107AF00085C0853409F488C0803531F1823521F1A3
:107B0000813511F1853509F485C0863509F48DC0BC
:107B1000843609F496C0843709F403C1853709F423
:107B200072C1863709F466C0809103018F5F80932C
:107B30000301853079F6E0910401F0910501099582
:107B40000E94763C803351F60E94F33CC3CF0E94E2
:107B5000763C803249F78091C00085FFFCCFF092DF
:107B6000C6008091C00085FFFCCF9092C600809136
:107B7000C00085FFFCCF8092C6008091C00085FFC9
:107B8000FCCF7092C6008091C00085FFFCCF609250
:107B9000C6008091C00085FFFCCF5092C600809146
:107BA000C00085FFFCCF4092C6008091C00085FFD9
:107BB000FCCF3092C6008091C00085FFFCCFB09210
:107BC000C60088CF0E94763C863808F4BDCF0E945C
:107BD000763C0E94F33C7ECF0E94763C803809F4CC
:107BE0009CC0813809F40BC1823809F43CC1883942
:107BF00009F48FC080E00E94C73C6CCF84E10E94F2
:107C0000BD3C0E94F33C66CF85E00E94BD3C0E94D3
:107C1000F33C60CF0E94763C809306010E94763C44
:107C2000809307010E94F33C55CF0E94763C80333D
:107C300009F41DC183E00E94BD3C80E00E94C73C66
:107C400049CF0E94763C809309020E94763C809343
:107C5000080280910C028E7F80930C020E94763C79
:107C6000853409F415C18091080290910902892B8D
:107C700089F000E010E00E94763CF801E85FFE4FDA
:107C800080830F5F1F4F80910802909109020817AF
:107C9000190788F30E94763C803209F045CF809125
:107CA0000C0280FF01C16091060170910701660F0F
:107CB000771F7093070160930601A0910802B091AD
:107CC00009021097C9F0E8E0F1E09B01AD014E0F09
:107CD0005F1FF999FECF32BD21BD819180BDFA9A17
:107CE000F99A2F5F3F4FE417F50799F76A0F7B1F4B
:107CF00070930701609306018091C00085FFFCCF5F
:107D0000F092C6008091C00085FFFCCFB092C60003
:107D1000E1CE83E00E94C73CDDCE82E00E94C73CFA
:107D2000D9CE0E94763C809309020E94763C8093D3
:107D300008028091060190910701880F991F909386
:107D40000701809306010E94763C853409F4A6C0A1
:107D500080910C028E7F80930C020E94763C8032D0
:107D600009F0B8CE8091C00085FFFCCFF092C6002C
:107D7000609108027091090261157105B9F140E046
:107D800050E080910C02A82FA170B82FB27011C0E2
:107D9000BB2309F45CC0E0910601F0910701319624
:107DA000F0930701E09306014F5F5F4F46175707B7
:107DB000E8F4AA2369F3F999FECF209106013091E6
:107DC000070132BD21BDF89A90B58091C00085FFB2
:107DD000FCCF9093C6002F5F3F4F30930701209355
:107DE00006014F5F5F4F4617570718F38091C00099
:107DF00085FDE5CE8091C00085FFF8CFE0CE81E023
:107E00000E94C73C67CE0E94763C803209F08CCE3F
:107E10008091C00085FFFCCFF092C6008091C00029
:107E200085FFFCCFE092C6008091C00085FFFCCFAB
:107E3000D092C6008091C00085FFFCCFC092C600E2
:107E40008091C00085FFFCCFB092C60043CEE09188
:107E50000601F091070194918091C00085FFFCCF4D
:107E60009093C6009CCF80E10E94C73C33CE0E9415
:107E7000763C0E94763C182F0E94763C112309F430
:107E800083C0113009F484C08FE00E94C73C22CE29
:107E900080910C02816080930C02E5CE80910C02EF
:107EA000816080930C0259CF809107018823880F4D
:107EB000880B8A2180930B02809106019091070123
:107EC000880F991F90930701809306018091080203
:107ED00080FF09C080910802909109020196909359
:107EE000090280930802F894F999FECF1127E091D6
:107EF0000601F0910701C8E0D1E08091080290915D
:107F00000902103091F40091570001700130D9F34B
:107F100003E000935700E89500915700017001308D
:107F2000D9F301E100935700E89509901990009169
:107F3000570001700130D9F301E000935700E89534
:107F40001395103498F011270091570001700130FB
:107F5000D9F305E000935700E895009157000170B0
:107F60000130D9F301E100935700E895329602976A
:107F700009F0C7CF103011F00296E5CF112480919F
:107F8000C00085FFB9CEBCCE8EE10E94C73CA2CD19
:0C7F900085E90E94C73C9ECDF894FFCF0D
:027F9C00800063
:040000030000780081
:00000001FF