:100000000C9462000C942D030C9406030C948A004B
:100010000C948A000C948A000C948A000C9454036B
:100020000C948A000C948A000C948A000C948A0028
:100030000C948A000C948A000C948A000C948A0018
:100040000C94BC020C948A000C94E4010C94BE0144
:100050000C948A000C948A000C948A000C948A00F8
:100060000C948A000C948A000000000023002600F3
:10007000290000000000240027002A0000000000E2
:10008000250028002B0004040404040404040202D4
:100090000202020203030303030301020408102007
:1000A0004080010204081020010204081020000012
:1000B0000008000201000003040700000000000027
:1000C0000000CB0E11241FBECFEFD8E0DEBFCDBFA6
:1000D00011E0A0E0B1E0ECE8F3E202C005900D927F
:1000E000AA31B107D9F722E0AAE1B1E001C01D921F
:1000F000A43AB207E1F710E0C2E6D0E004C02197CD
:10010000FE010E94AA11C136D107C9F70E94130649
:100110000C94C4110C940000089580E090E00895C0
:10012000FC01538D448D252F30E0842F90E0821BFD
:10013000930B541710F0CF96089501970895FC0182
:10014000918D828D981761F0828DDF01A80FB11D0E
:100150005D968C91928D9F5F9F73928F90E0089532
:100160008FEF9FEF0895FC01918D828D981731F0EC
:10017000828DE80FF11D858D90E008958FEF9FEF40
:100180000895FC01918D228D892F90E0805C9F4F16
:10019000821B91098F739927089584E391E00E944F
:1001A000C10021E0892B09F420E0822F0895FC0191
:1001B000848DDF01A80FB11DA35ABF4F2C91848DF0
:1001C00090E001968F739927848FA689B7892C9325
:1001D000A089B1898C9180648C93938D848D9813C0
:1001E00006C00288F389E02D80818F7D8083089589
:1001F000EF92FF920F931F93CF93DF93EC0181E077
:10020000888F9B8D8C8D981305C0E889F989808132
:1002100085FD24C0F62E0B8D10E00F5F1F4F0F736E
:100220001127E02E8C8DE8120CC00FB607FCFACF18
:10023000E889F989808185FFF5CFCE010E94D7003A
:10024000F1CF8B8DFE01E80FF11DE35AFF4FF082D5
:100250000B8FEA89FB898081806207C0EE89FF8964
:100260006083E889F98980818064808381E090E0FF
:10027000DF91CF911F910F91FF90EF900895CF9351
:10028000DF93EC01888D8823C9F0EA89FB8980819E
:1002900085FD05C0A889B9898C9186FD0FC00FB670
:1002A00007FCF5CF808185FFF2CFA889B9898C91B1
:1002B00085FFEDCFCE010E94D700E7CFDF91CF9130
:1002C000089580E090E0892B29F00E94CD008111F3
:1002D0000C9400000895833081F028F4813099F067
:1002E0008230A1F008958730A9F08830B9F08430C9
:1002F000D1F4809180008F7D03C0809180008F7742
:1003000080938000089584B58F7702C084B58F7D77
:1003100084BD08958091B0008F7703C08091B000B4
:100320008F7D8093B00008953FB7F89480912001AD
:1003300090912101A0912201B091230126B5A89BA3
:1003400005C02F3F19F00196A11DB11D3FBFBA2F67
:10035000A92F982F8827820F911DA11DB11DBC01C7
:10036000CD0142E0660F771F881F991F4A95D1F78C
:100370000895089581E080931A0108951F920F92C5
:100380000FB60F9211242F933F934F935F936F9368
:100390007F938F939F93AF93BF93EF93FF9384E3E8
:1003A00091E00E94D700FF91EF91BF91AF919F9193
:1003B0008F917F916F915F914F913F912F910F900E
:1003C0000FBE0F901F9018951F920F920FB60F92AD
:1003D00011242F938F939F93EF93FF93E091440108
:1003E000F09145018081E0914A01F0914B0182FD3D
:1003F00012C0908180914D018F5F8F7320914E01CB
:10040000821751F0E0914D01F0E0EC5CFE4F958FCA
:1004100080934D0101C08081FF91EF919F918F9159
:100420002F910F900FBE0F901F9018951F93CF9391
:10043000DF93282F30E0F901E255FF4F8491F90155
:10044000E656FF4FD491F901EA57FF4FC491CC23F0
:10045000C9F0162F81110E946B01EC2FF0E0EE0F16
:10046000FF1FE458FF4FA591B4918FB7F894111175
:1004700005C09C91ED2FE095E92302C0EC91ED2B96
:10048000EC938FBFDF91CF911F910895CF93DF93AE
:1004900090E0FC01E656FF4F2491FC01EA57FF4F24
:1004A0008491882361F190E0880F991FFC01EE5838
:1004B000FF4FC591D491FC01E458FF4FA591B49131
:1004C000611109C09FB7F8948881209582238883A1
:1004D000EC912E230BC0623061F49FB7F894388101
:1004E000822F809583238883EC912E2B2C939FBFA2
:1004F00006C08FB7F894E8812E2B28838FBFDF9139
:10050000CF9108958F929F92AF92BF92CF92DF9238
:10051000EF92FF926B017C010E9494014B015C0100
:10052000C114D104E104F104F1F00E949401DC0152
:10053000CB0188199909AA09BB09883E9340A105F6
:10054000B10570F321E0C21AD108E108F10888EE84
:10055000880E83E0981EA11CB11CC114D104E104D3
:10056000F10419F7DDCFFF90EF90DF90CF90BF90AF
:10057000AF909F908F9008951F920F920FB60F9299
:1005800011242F933F938F939F93AF93BF938091A9
:100590001C0190911D01A0911E01B0911F0130918D
:1005A0001B0123E0230F2D3720F40196A11DB11D5F
:1005B00005C026E8230F0296A11DB11D20931B0143
:1005C00080931C0190931D01A0931E01B0931F0105
:1005D0008091200190912101A0912201B0912301ED
:1005E0000196A11DB11D8093200190932101A0933C
:1005F0002201B0932301BF91AF919F918F913F91C1
:100600002F910F900FBE0F901F9018951F920F9271
:100610000FB60F9211242F933F934F935F936F93D5
:100620007F938F939F93AF93BF93EF93FF93E0914B
:100630000201F09103010995FF91EF91BF91AF91F4
:100640009F918F917F916F915F914F913F912F91EA
:100650000F900FBE0F901F9018951F920F920FB61C
:100660000F9211242F933F934F935F936F937F9338
:100670008F939F93AF93BF93EF93FF93E09100010C
:10068000F09101010995FF91EF91BF91AF919F9179
:100690008F917F916F915F914F913F912F910F902B
:1006A0000FBE0F901F9018951F920F920FB60F92CA
:1006B00011242F933F934F935F936F937F938F9367
:1006C0009F93AF93BF93CF93DF93EF93FF932091CB
:1006D000D20130E0F901E255FF4F8491F901E6566D
:1006E000FF4FD491F901EA57FF4FC491CC23A1F0F9
:1006F00081110E946B01EC2FF0E0EE0FFF1FE85913
:10070000FF4FA591B491EC91ED2331E020E009F485
:1007100030E0832F922F02C080E090E02091D6013C
:100720003091D7012F5F3F4F3093D7012093D601EF
:100730002091D501253618F026E02093D101209193
:10074000D1012430D9F128F4223069F02330D9F0D6
:1007500060C0253009F453C0263009F05AC021E0AA
:100760002093A20253C0009709F053C02091D601F4
:100770003091D7012436310508F443C01092A2020B
:100780001092D5011DC08130910509F042C0E09161
:10079000D50121E02E0F2093D501F0E02091D60164
:1007A0003091D701EE0FFF1FEF52FE4F30872783A6
:1007B0001092D7011092D60124E029C00097B9F415
:1007C000E091D50121E02E0F2093D501F0E020919A
:1007D000D6013091D701EE0FFF1FEF52FE4F308749
:1007E00027831092D7011092D60123E010C02091E8
:1007F000D6013091D7012536310558F007C0009752
:1008000041F41092D7011092D60103C025E0209345
:10081000D1012091D4012223B9F0892B51F4809188
:10082000D301882321F08091D30161E009C02D9A82
:100830000BC08091D301882331F08091D30160E017
:100840000E94160201C02D98FF91EF91DF91CF9188
:10085000BF91AF919F918F917F916F915F914F91D8
:100860003F912F910F900FBE0F901F901895CF9230
:10087000DF92EF92FF92CF93DF93EC01072E000CF3
:10088000880B990B0E9419106B017C0120E030E06D
:1008900040E45FE30E94C91020E030E048E452E405
:1008A0000E946F0F0E94E10FC617D707D4F020E017
:1008B00030E040EA5FE3C701B6010E94C91020E0C2
:1008C00030E048E452E40E946F0F20E030E040E85E
:1008D0005FE30E94FE0E0E94E10F21E06C177D078E
:1008E0000CF420E0822F90E0DF91CF91FF90EF9009
:1008F000DF90CF90089560E083E00E94160260E0F0
:1009000084E00E94160260E085E00E94160260E02A
:1009100086E00E94160260E087E00E94160260E016
:1009200088E00E94160260E089E00E94160260E002
:100930008AE00C94160261E083E00E94160261E0F6
:1009400084E00E94160261E085E00E94160261E0E8
:1009500086E00E94160261E087E00E94160261E0D4
:1009600088E00E94160261E089E00E94160261E0C0
:100970008AE00C941602CF93DF93C0E0D0E060E0F1
:1009800083E00E94160260E084E00E94160261E0AB
:1009900085E00E94160261E086E00E94160261E096
:1009A00087E00E94160261E088E00E94160261E082
:1009B00089E00E94160261E08AE00E9416026CE261
:1009C00071E080E090E00E9482020E949B046CE251
:1009D00071E080E090E00E9482022196C630D1054D
:1009E00074F280911A01882351F2DF91CF9108951A
:1009F000CF93DF93C0E0D0E061E083E00E94160275
:100A000060E084E00E94160261E085E00E94160228
:100A100061E086E00E94160261E087E00E94160213
:100A200061E088E00E94160261E089E00E941602FF
:100A300061E08AE00E9416026CE271E080E090E0E2
:100A40000E9482020E949B046CE271E080E090E0D0
:100A50000E9482022196C430D10574F280911A015D
:100A6000882351F2DF91CF910895CF93DF93C0E0B7
:100A7000D0E060E083E00E94160261E084E00E9422
:100A8000160261E085E00E94160261E086E00E94A5
:100A9000160261E087E00E94160261E088E00E9491
:100AA000160261E089E00E94160261E08AE00E947D
:100AB00016026CE271E080E090E00E9482020E94E7
:100AC0009B046CE271E080E090E00E94820221963B
:100AD000C430D10574F280911A01882351F2DF915C
:100AE000CF910895CF92DF92EF92FF920F931F93D1
:100AF000CF93DF936C017A018B01C0E0D0E0CE157B
:100B0000DF0589F0D8016D918D01D601ED91FC9141
:100B10000190F081E02DC6010995892B11F47E0129
:100B200002C02196ECCFC701DF91CF911F910F91A9
:100B3000FF90EF90DF90CF9008950E94BF118F92A9
:100B40009F92AF92BF92CF92DF92EF92FF920F935C
:100B50001F93CF93DF93FC01C081D181209130019D
:100B600030913101C217D3070CF04BC09E01220F08
:100B7000331FE0912E01F0912F01E20FF31F8080CF
:100B80009180C170DD27F1E0CF27209719F404E6AA
:100B900010E002C00CE91FEF7A015B016C01040F49
:100BA000151FB801C4010E943704892B99F40E0D5A
:100BB0001F1DB801C4010E943704892B71F4B801CC
:100BC0006E0D7F1DC4010E943704892BE9F023E0DC
:100BD00030E005C021E030E002C022E030E0F50165
:100BE000808191810196821793073CF0F501118273
:100BF0001082F60180819181019691838083CE01DC
:100C000005C081E090E002C08FEF9FEFDF91CF91B0
:100C10001F910F91FF90EF90DF90CF90BF90AF901A
:100C20009F908F900895CF93DF93CDB7DEB7AB97AA
:100C30000FB6F894DEBF0FBECDBF789484B5826046
:100C400084BD84B5816084BD85B5826085BD85B570
:100C5000816085BD80916E00816080936E001092EE
:100C60008100809181008260809381008091810069
:100C700081608093810080918000816080938000FA
:100C80008091B10084608093B1008091B000816058
:100C90008093B00080917A00846080937A00809184
:100CA0007A00826080937A0080917A0081608093DC
:100CB0007A0080917A00806880937A001092C10057
:100CC00061E083E00E94460261E084E00E94460207
:100CD00061E085E00E94460261E086E00E944602F3
:100CE00061E087E00E94460261E088E00E944602DF
:100CF00061E089E00E94460261E08AE00E944602CB
:100D000060E082E00E9446028AEB91E0909301014C
:100D100080930001809169008C7F816080936900DD
:100D2000E89A0E949B04F89412E01093B00010938C
:100D3000B10084E68093B3001092B200109370006B
:100D400078941093D1011092D5018091D20160E086
:100D50000E944602E0914401F09145011083E09128
:100D60004001F09141011082E0914201F091430174
:100D70008FEC808310924C01E0914801F091490181
:100D800086E08083E0914601F09147018081806197
:100D90008083E0914601F0914701808188608083E3
:100DA000E0914601F0914701808180688083E09165
:100DB0004601F091470180818F7D808310E2212ED2
:100DC000312C44244A94542C320128ED31E03093E4
:100DD0002F0120932E018091D50190E09093310155
:100DE000809330018091A20290E090933301809330
:100DF00032018091D101853009F08CC28091DA01F5
:100E00009091DB01885891098D35910588F4809186
:100E1000D501843041F48091DC019091DD0180970F
:100E2000479708F47AC28091D501843408F0CDC187
:100E30008091D5018A3108F44FC08091D8019091FA
:100E4000D901843F914068F410922D0110922C0139
:100E5000409228015092290160922A0170922B0140
:100E600059C08091DA019091DB0185974B97A0F5ED
:100E7000EEEDF1E082E090E0C12CD12C7601AC01E6
:100E80004F5F5F4F2091D50130E0421753075CF46C
:100E9000DF0112972D913C91275031092730310500
:100EA00008F45FC2CA0101979595879590932D012B
:100EB00080932C010C972CF410922D0110922C0190
:100EC0000BC0C0922801D0922901E0922A01F09231
:100ED0002B0184E090E07EC38091D5018A3108F433
:100EE0004CC08091D8019091D9018032934008F490
:100EF000ABCF8091DA019091DB01C697869708F419
:100F00004DC23BC0C0922801D0922901E0922A0133
:100F1000F0922B018BE090E05DC32081318125525E
:100F200031092B31310508F049C2CC0CDD1CEE1C17
:100F3000FF1C6894C0F802963496AC014F5F5F4F77
:100F40002091D50130E04217530754F4DF01129786
:100F50002D913C912C5031092B303105F0F2CA0112
:100F600001979595879590932D0180932C010C976F
:100F70004CF610922D0110922C018091D5018232F5
:100F8000E8F18091DA019091DB0106970797B0F5BF
:100F9000EEEDF1E082E090E0C12CD12C76019C01D5
:100FA0002F5F3F4F4091D50150E0241735076CF477
:100FB000DF0112974D915C9111974E5151094731C4
:100FC000510508F41FC207C2C9010197959587957D
:100FD00090932D0180932C0140972CF410922D01B9
:100FE00010922C010BC0C0922801D0922901E092EE
:100FF0002A01F0922B018CE090E0ECC21BA21AA215
:1010000081E090E09A8389838091D5018D3008F446
:101010006BC049E753E0BE016E5D7F4FCE01019684
:101020000E949F05892B09F05FC049E753E0BE018C
:101030006E5D7F4FCE0101960E949F05019709F0DA
:1010400053C049E753E0BE016E5D7F4FCE0101966C
:101050000E949F05892B09F047C0812C912C5401D7
:1010600000E010E08091D50190E029813A812817B5
:1010700039075CF549E753E0BE016E5D7F4FCE0155
:1010800001960E949F057C0149E753E0BE016E5D19
:101090007F4FCE0101960E949F05F1E0EF16F1040B
:1010A00049F4892B09F5880C991CAA1CBB1C68946F
:1010B00080F808C0EF28C1F40197B1F4880C991C9E
:1010C000AA1CBB1C0F5F1F4FCDCF10932D010093A7
:1010D0002C018092280190922901A0922A01B092BD
:1010E0002B0181E090E076C21BA21AA281E090E081
:1010F0009A838983809130019091310118161906E5
:101100000CF058C0E0912E01F0912F0182E090E0A8
:101110009A8389838281938189974E9708F04AC088
:1011200023E030E03A832983848195810B970A97E5
:1011300008F040C04CEB51E0BE016E5D7F4FCE0128
:1011400001960E949F05892BA9F54CEB51E0BE0149
:101150006E5D7F4FCE0101960E949F05019751F56C
:10116000812C912C540100E010E029813A8180917A
:10117000300190913101281739070CF080C14CEBF8
:1011800051E0BE016E5D7F4FCE0101960E949F052A
:101190006C010330110509F03CC14CEB51E0BE017C
:1011A0006E5D7F4FCE0101960E949F05C816D9063D
:1011B00009F42FC1E0912E01F0912F0182819381DA
:1011C000C697869708F46AC1EAC28091DC019091C3
:1011D000DD01825491098E9708F02ACE80E090E0DC
:1011E00040E050E0BA01FC01E252FE4F2081318123
:1011F000295031092930310508F01ACEFC01E0529E
:10120000FE4F20813181275131092231310508F00B
:101210009BC0440F551F661F771F4160049680389E
:10122000910509F730922D0120922C01409328015D
:101230005093290160932A0170932B01A3E0B0E041
:10124000B0932501A0932401209128013091290118
:1012500040912A0150912B0119A28E010F5D1F4F61
:10126000CA01B9012AE030E040E050E00E94461196
:10127000605DD8016E938D01211531054105510541
:1012800079F7109769F0FD0101900020E9F7319797
:10129000AF014A1B5B0BBD0184E391E00E94720524
:1012A00042E050E066E171E084E391E00E94720563
:1012B00010921A0182E08093D1011092D5018091A1
:1012C000280190912901A0912A01B0912B01813C24
:1012D000E4EB9E07EAE3AE07E8E9BE0709F456C26D
:1012E00008F47DC1813E39ED93073EE0A3073BEB57
:1012F000B30709F451C28735EAE29E07EEE1AE0773
:10130000E6EFBE0709F47DC1893C9940A446B24A84
:1013100009F436C20E94610158CD8091DE0190919E
:10132000DF010997099708F07ECD10922D011092E8
:101330002C01409228015092290160922A0170925A
:101340002B0183E090E046C1208131812650310994
:101350002730310508F06CCD440F551F661F771FED
:101360005DCF20813181235131092F30310578F053
:10137000208131812A5031092930310508F0ACCD66
:10138000CC0CDD1CEE1CFF1C0296349678CDCC0CE8
:10139000DD1CEE1CFF1C6894C0F8F6CF8091DC01C8
:1013A0009091DD01C697869708F0E7CDE0EEF1E079
:1013B00083E090E0C12CD12C7601BFCD208131811A
:1013C0002C5031092A30310508F0D7CDCC0CDD1C6A
:1013D000EE1CFF1CB0CD4D915C914C5051094B302F
:1013E000510508F00BCECC0CDD1CEE1CFF1C40811F
:1013F00051813496435051094530510508F0E4CDF0
:101400000296CDCDCC0CDD1CEE1CFF1C6894C0F800
:10141000EECF4CEB51E0BE016E5D7F4FCE010196E9
:101420000E949F057C010330110569F44CEB51E0EB
:10143000BE016E5D7F4FCE0101960E949F05E816AA
:10144000F90609F0B7CEC114D10459F4EA94EF2893
:1014500009F0B0CE880C991CAA1CBB1C689480F8BB
:101460000BC0CA94CD2809F0A5CEEF2809F0A2CE72
:10147000880C991CAA1CBB1C0F5F1F4F76CE1093C3
:101480002D0100932C018092280190922901A092B5
:101490002A01B0922B0182E090E09CC0848195816A
:1014A0004B97459708F07BC1DF0116967F0136EC1C
:1014B000E30EF11C20E030E040E050E060E070E03E
:1014C00080E090E0CD90DC90119719E0C11AD1082E
:1014D00018E0C116D10408F062C11296CD90DC90DC
:1014E000139711E1C11AD1081DE0C116D10420F5EE
:1014F00001E00E94731121601496AE15BF0511F72B
:10150000209328013093290140932A0150932B0105
:1015100000E20E948E11209326013093270185E07E
:1015200090E0909325018093240180E390E09093D4
:101530002D0180932C0188CE1296CD90DC901397CC
:1015400014E0C11AD10815E0C116D10408F027C172
:1015500001E00E947311D0CFA80142505109DA0175
:101560004D915C91495051094830510508F0C5C171
:10157000BC016F5F7F4FD8014D915C91475051097D
:101580004730510508F0B4C3220F331F2160029683
:101590000C5F1F4F4091D50150E044505109841712
:1015A0009507D4F201979595879590932D01809397
:1015B0002C018A970CF4A1C1C901330FAA0BBB0BF4
:1015C0008093280190932901A0932A01B0932B01C5
:1015D00089E090E0909325018093240135CE8133FA
:1015E00014E5910713E0A10711E2B10709F4D1C096
:1015F00081369149AC40B44209F08CCE0E947B0404
:1016000089CE0E949B0486CE80911A01811108C068
:101610000E947B0460ED77E080E090E00E9482020F
:1016200080911A01811108C00E949B0460ED77E04F
:1016300080E090E00E94820280911A01811108C02E
:101640000E94350560ED77E080E090E00E94820224
:1016500080911A01811108C00E94F80460ED77E0C2
:1016600080E090E00E94820280911A01811108C0FE
:101670000E94BB0460ED77E080E090E00E9482026F
:1016800080911A01811126C061E083E00E94160258
:1016900061E084E00E94160261E085E00E9416028B
:1016A00061E086E00E94160261E087E00E94160277
:1016B00061E088E00E94160260E089E00E94160264
:1016C00060E08AE00E94160260ED77E080E090E042
:1016D0000E94820280911A01811126C061E083E09C
:1016E0000E94160261E084E00E94160260E085E03C
:1016F0000E94160260E086E00E94160261E087E028
:101700000E94160261E088E00E94160261E089E012
:101710000E94160261E08AE00E94160260ED77E006
:1017200080E090E00E94820280911A01811126C01F
:1017300061E083E00E94160261E084E00E941602EC
:1017400061E085E00E94160261E086E00E941602D8
:1017500060E087E00E94160260E088E00E941602C6
:1017600061E089E00E94160261E08AE00E941602B0
:1017700060ED77E080E090E00E9482020E949B048E
:1017800080911A01882309F43FCFC4CD0E9435050A
:10179000C1CD0E94F804BECD0E94BB04BBCD809198
:1017A000D501893370F182819381895791098335FD
:1017B000910508F448C125C0D90112966D917C911C
:1017C0001397665171096131710508F068C1D7013D
:1017D000C601880F991FAA1FBB1F6C017D01689469
:1017E000C0F84E5F5F4F2C5F3F4F4B33510509F4FC
:1017F00039C1D9016D917C916A50710969307105C7
:10180000D8F28091D501823231F4828193810A9796
:10181000099708F454C182819381895791098335CE
:101820009105D0F48091D5018132B0F08481958109
:10183000CA97899788F49F012A5F3F4FC12CD12C0A
:10184000760143E050E0D9016D917C916A507109B5
:101850006930710508F44FC1828193818C549109DC
:10186000C59778F48091D501843031F484819581D5
:101870008097479708F49FC18091D501843408F080
:1018800081C18091D501863460F1828193810C976A
:101890000B9708F4D9C125C0D90112966D917C919E
:1018A00013976E5171096731710508F0E8C1D701CE
:1018B000C601880F991FAA1FBB1F6C017D01689488
:1018C000C0F84E5F5F4F2C5F3F4F4534510509F420
:1018D000E5C1D9016D917C916C5071096B30710536
:1018E000D8F28091D501883540F082819381855866
:1018F00091098B35910508F4ECC18091D5018032B6
:10190000E1F48281938106970697B8F484819581EA
:101910000997099790F49F012A5F3F4FBF01625CCE
:101920007F4FC12CD12C7601D9014D915C9146504D
:1019300051094630510508F4E8C120913001309139
:1019400031013FA32EA3263031050CF418C28F01BC
:101950000A5F1F4F95ECC92E9DE9D92E9CE1E92E17
:1019600091E8F92E83E090E09DA38CA3D8016D91BE
:101970007C91F8013497A080B18080E090E00E94D3
:10198000171068A779A78AA79BA7B50180E090E008
:101990000E9417104B015C012DEC3CEC4CE45FE322
:1019A0000E94C9109B01AC0168A579A58AA59BA5D9
:1019B0000E946A0F87FD19C02DEC3CEC4CE45FE3FC
:1019C00068A579A58AA59BA50E94C9109B01AC01B9
:1019D000C501B4010E946A0FE82F880FFF0BEE27A4
:1019E000FF0FEE1FFF27319602C0E0E0F0E0A701F5
:1019F000960163E971E080E091E00E9436116F0189
:101A0000FF0FEE08FF08C626D726E826F926ECA128
:101A1000FDA13196FDA3ECA30E5F1F4F2EA13FA1A8
:101A2000E217F30709F0A2CFC0922801D092290152
:101A3000E0922A01F0922B0130922D0120922C018C
:101A40008FEF9FEFC7CD84819581CA97899708F062
:101A5000D8CE9F012A5F3F4FC12CD12C760143E0A5
:101A600050E0C7CE9F012A583F4FD9012D913C919C
:101A70002A5031092930310508F0C3CE2CE130E07D
:101A800030932D0120932C01C0922801D09229017E
:101A9000E0922A01F0922B018AE090E09BCDD901DF
:101AA00012966D917C91139766507109673071059C
:101AB00008F0A7CECC0CDD1CEE1CFF1C92CE2091B2
:101AC000D501CF01820F911D820F911DDC0112976C
:101AD0008D919C910A97099708F09DCE10922D0147
:101AE00010922C01409228015092290160922A0103
:101AF00070922B014AC1D90112966D917C91139776
:101B0000665171096131710568F5D701C601880F09
:101B1000991FAA1FBB1F6C017D016894C0F84E5F1E
:101B20005F4F2C5F3F4F4332510509F08CCE9F0130
:101B30002A5B3F4FD9012D913C912A503109293020
:101B4000310508F089CE20E130E030932D0120935B
:101B50002C01C0922801D0922901E0922A01F09232
:101B60002B0113C1D90112966D917C911397665088
:101B700071096730710508F06FCECC0CDD1CEE1CCE
:101B8000FF1CCDCF8481958189549109C39708F0BA
:101B900078CE9F012A5F3F4FBF016A577F4FC12C0C
:101BA000D12C7601D9014D915C91495051094930B0
:101BB0005105A0F066CE868197810997099708F0B4
:101BC0005BCE10922D0110922C0140922801509270
:101BD000290160922A0170922B01DAC0D901129674
:101BE0004D915C9113974651510941315105E0F4F3
:101BF000D701C601880F991FAA1FBB1F6C017D0169
:101C00006894C0F82C5F3F4F2617370759F630927B
:101C10002D0120922C01C0922801D0922901E0923E
:101C20002A01F0922B01B4C0D90112964D915C911A
:101C30001397465051094730510508F022CECC0C7D
:101C4000DD1CEE1CFF1CDECF84819581099709976E
:101C500008F047CE868197818C974F9708F041CE48
:101C60008085918589974D9708F03BCE9F01265F2F
:101C70003F4FC12CD12C760145E050E02ACE129680
:101C80006D917C911397695071096930710508F065
:101C900028CECC0CDD1CEE1CFF1C13CE9F0126575A
:101CA0003F4FD9012D913C912C5031092B303105FA
:101CB00008F017CE30922D0120922C01C0922801FD
:101CC000D0922901E0922A01F0922B0188E090E065
:101CD00081CC84819581825491098E9708F00DCE34
:101CE0008F01045C1F4F8DE190E020E030E052CC8A
:101CF000D8014D915C91485151094231510510F084
:101D0000CB0150CC220F331F42CCD90112964D91FA
:101D10005C911397495151094331510528F11296AD
:101D20004D915C911397495051094930510508F084
:101D300004CECC0CDD1CEE1CFF1C2C5F3F4F261785
:101D4000370709F0F1CD2EE030E030932D012093DC
:101D50002C01C0922801D0922901E0922A01F09230
:101D60002B018FE090E036CCD701C601880F991F78
:101D7000AA1FBB1F6C017D016894C0F8DECF82E012
:101D80008093D1011092D501C5CA86E090E022CCA3
:101D900087E090E01FCCE4E3F1E01382128288EE4A
:101DA00093E0A0E0B0E084839583A683B78388E0C6
:101DB00091E09183808385EC90E09587848784EC23
:101DC00090E09787868780EC90E0918B808B81EC08
:101DD00090E0938B828B82EC90E0958B848B86ECE9
:101DE00090E0978B868B118E128E138E148EE1ED00
:101DF000F1E082E08183138208955058BB27AA271F
:101E00000E94150F0C948F100E94811038F00E94D0
:101E1000881020F039F49F3F19F426F40C947E10BA
:101E20000EF4E095E7FB0C947810E92F0E94A010C7
:101E300058F3BA17620773078407950720F079F4FF
:101E4000A6F50C94C2100EF4E0950B2EBA2FA02D1F
:101E50000B01B90190010C01CA01A0011124FF2757
:101E6000591B99F0593F50F4503E68F11A16F04052
:101E7000A22F232F342F4427585FF3CF4695379551
:101E80002795A795F0405395C9F77EF41F16BA0B16
:101E9000620B730B840BBAF09150A1F0FF0FBB1FC4
:101EA000661F771F881FC2F70EC0BA0F621F731F0D
:101EB000841F48F4879577956795B795F7959E3F6A
:101EC00008F0B0CF9395880F08F09927EE0F9795FB
:101ED000879508950E94541008F481E008950E94A7
:101EE000830F0C948F100E94881058F00E9481106C
:101EF00040F029F45F3F29F00C94781051110C94B4
:101F0000C3100C947E100E94A01068F39923B1F3C3
:101F1000552391F3951B550BBB27AA27621773070F
:101F2000840738F09F5F5F4F220F331F441FAA1FA3
:101F3000A9F335D00E2E3AF0E0E832D0915050405F
:101F4000E695001CCAF72BD0FE2F29D0660F771F0D
:101F5000881FBB1F261737074807AB07B0E809F0F3
:101F6000BB0B802DBF01FF2793585F4F3AF09E3F78
:101F7000510578F00C9478100C94C3105F3FE4F393
:101F8000983ED4F3869577956795B795F7959F5FBB
:101F9000C9F7880F911D9695879597F90895E1E007
:101FA000660F771F881FBB1F621773078407BA0766
:101FB00020F0621B730B840BBA0BEE1F88F7E095C1
:101FC00008950E94E80F6894B1110C94C31008950D
:101FD0000E94A81088F09F5798F0B92F9927B75101
:101FE000B0F0E1F0660F771F881F991F1AF0BA95BD
:101FF000C9F714C0B13091F00E94C210B1E0089549
:102000000C94C210672F782F8827B85F39F0B93F3A
:10201000CCF3869577956795B395D9F73EF490956F
:102020008095709561957F4F8F4F9F4F0895E894ED
:1020300009C097FB3EF490958095709561957F4F10
:102040008F4F9F4F9923A9F0F92F96E9BB279395BE
:10205000F695879577956795B795F111F8CFFAF4CE
:10206000BB0F11F460FF1BC06F5F7F4F8F4F9F4FFF
:1020700016C0882311F096E911C0772321F09EE85D
:10208000872F762F05C0662371F096E8862F70E0C3
:1020900060E02AF09A95660F771F881FDAF7880F9D
:1020A0009695879597F90895990F0008550FAA0BF3
:1020B000E0E8FEEF16161706E807F907C0F012165B
:1020C0001306E407F50798F0621B730B840B950B5E
:1020D00039F40A2661F0232B242B252B21F40895B3
:1020E0000A2609F4A140A6958FEF811D811D089550
:1020F00097F99F6780E870E060E008959FEF80ECBB
:10210000089500240A94161617061806090608955D
:1021100000240A9412161306140605060895092EC3
:102120000394000C11F4882352F0BB0F40F4BF2B32
:1021300011F460FF04C06F5F7F4F8F4F9F4F089572
:1021400057FD9058440F551F59F05F3F71F0479568
:10215000880F97FB991F61F09F3F79F0879508954D
:10216000121613061406551FF2CF4695F1DF08C06C
:10217000161617061806991FF1CF86957105610589
:1021800008940895E894BB2766277727CB0197F931
:1021900008950E94DC100C948F100E94811038F07A
:1021A0000E94881020F0952311F00C9478100C9464
:1021B0007E1011240C94C3100E94A01070F3959F00
:1021C000C1F3950F50E0551F629FF001729FBB272E
:1021D000F00DB11D639FAA27F00DB11DAA1F649FCA
:1021E0006627B00DA11D661F829F2227B00DA11D7D
:1021F000621F739FB00DA11D621F839FA00D611D03
:10220000221F749F3327A00D611D231F849F600D23
:10221000211D822F762F6A2F11249F5750409AF04C
:10222000F1F088234AF0EE0FFF1FBB1F661F771FD8
:10223000881F91505040A9F79E3F510580F00C94A3
:1022400078100C94C3105F3FE4F3983ED4F3869566
:1022500077956795B795F795E7959F5FC1F7FE2B43
:10226000880F911D9695879597F90895DB018F93B7
:102270009F930E946811BF91AF91A29F800D911D05
:10228000A39F900DB29F900D11240895A1E21A2EE4
:10229000AA1BBB1BFD010DC0AA1FBB1FEE1FFF1F0A
:1022A000A217B307E407F50720F0A21BB30BE40B5A
:1022B000F50B661F771F881F991F1A9469F76095A1
:1022C0007095809590959B01AC01BD01CF0108955B
:1022D0000E94B011A59F900DB49F900DA49F800DFA
:1022E000911D112408950F93083090F0982F872F97
:1022F000762F652F542F432F322F22270850F4CFEB
:10230000220F331F441F551F661F771F881F991FF9
:102310000A95B2F70F91089597FB10F816940008EC
:102320000F93083098F00850232F342F452F562F45
:10233000672F782F892F902DF4CF05949795879547
:102340007795679557954795379527950A95AAF7F5
:102350000F910895EE0FFF1F0590F491E02D099461
:10236000A29FB001B39FC001A39F700D811D1124D6
:10237000911DB29F700D811D1124911D089581E062
:0C23800090E0F8940C94C411F894FFCF86
:10238C00B901B90100000000F800720590003F018E
:0A239C00C1009F00B3000D0A00000D
:00000001FF
